{
  "contractName": "TraceabilitySupplyChain",
  "abi": [
    {
      "constant": true,
      "inputs": [],
      "name": "shipmentCount",
      "outputs": [
        {
          "name": "",
          "type": "uint256"
        }
      ],
      "payable": false,
      "stateMutability": "view",
      "type": "function"
    },
    {
      "constant": true,
      "inputs": [],
      "name": "controlAuthority",
      "outputs": [
        {
          "name": "",
          "type": "address"
        }
      ],
      "payable": false,
      "stateMutability": "view",
      "type": "function"
    },
    {
      "inputs": [
        {
          "name": "_controlAuthority",
          "type": "address"
        }
      ],
      "payable": false,
      "stateMutability": "nonpayable",
      "type": "constructor"
    },
    {
      "anonymous": false,
      "inputs": [
        {
          "indexed": false,
          "name": "id",
          "type": "uint256"
        }
      ],
      "name": "ShipmentAdded",
      "type": "event"
    },
    {
      "anonymous": false,
      "inputs": [
        {
          "indexed": false,
          "name": "id",
          "type": "uint256"
        },
        {
          "indexed": false,
          "name": "sensor",
          "type": "address"
        }
      ],
      "name": "SensorPlaced",
      "type": "event"
    },
    {
      "anonymous": false,
      "inputs": [
        {
          "indexed": false,
          "name": "id",
          "type": "uint256"
        },
        {
          "indexed": false,
          "name": "latitude",
          "type": "string"
        },
        {
          "indexed": false,
          "name": "longitude",
          "type": "string"
        }
      ],
      "name": "LocationUpdated",
      "type": "event"
    },
    {
      "anonymous": false,
      "inputs": [
        {
          "indexed": false,
          "name": "id",
          "type": "uint256"
        },
        {
          "indexed": false,
          "name": "status",
          "type": "uint8"
        }
      ],
      "name": "StatusUpdated",
      "type": "event"
    },
    {
      "constant": false,
      "inputs": [
        {
          "name": "name",
          "type": "string"
        },
        {
          "name": "shipper",
          "type": "address"
        },
        {
          "name": "receiver",
          "type": "address"
        },
        {
          "name": "metaData",
          "type": "bytes"
        }
      ],
      "name": "addShipment",
      "outputs": [],
      "payable": false,
      "stateMutability": "nonpayable",
      "type": "function"
    },
    {
      "constant": false,
      "inputs": [
        {
          "name": "id",
          "type": "uint256"
        },
        {
          "name": "sensor",
          "type": "address"
        }
      ],
      "name": "putSensor",
      "outputs": [],
      "payable": false,
      "stateMutability": "nonpayable",
      "type": "function"
    },
    {
      "constant": false,
      "inputs": [
        {
          "name": "id",
          "type": "uint256"
        },
        {
          "name": "latitude",
          "type": "string"
        },
        {
          "name": "longitude",
          "type": "string"
        }
      ],
      "name": "updateLocation",
      "outputs": [],
      "payable": false,
      "stateMutability": "nonpayable",
      "type": "function"
    },
    {
      "constant": false,
      "inputs": [
        {
          "name": "id",
          "type": "uint256"
        }
      ],
      "name": "startShipment",
      "outputs": [],
      "payable": false,
      "stateMutability": "nonpayable",
      "type": "function"
    },
    {
      "constant": false,
      "inputs": [
        {
          "name": "id",
          "type": "uint256"
        }
      ],
      "name": "receiveShipment",
      "outputs": [],
      "payable": false,
      "stateMutability": "nonpayable",
      "type": "function"
    },
    {
      "constant": true,
      "inputs": [
        {
          "name": "id",
          "type": "uint256"
        }
      ],
      "name": "getShipmentInfo",
      "outputs": [
        {
          "name": "shipmentId",
          "type": "uint256"
        },
        {
          "name": "producer",
          "type": "address"
        },
        {
          "name": "shipper",
          "type": "address"
        },
        {
          "name": "receiver",
          "type": "address"
        },
        {
          "name": "sensor",
          "type": "address"
        },
        {
          "name": "dateAdded",
          "type": "uint256"
        },
        {
          "name": "lastUpdated",
          "type": "uint256"
        },
        {
          "name": "currentLatitude",
          "type": "string"
        },
        {
          "name": "currentLongitude",
          "type": "string"
        },
        {
          "name": "status",
          "type": "uint8"
        },
        {
          "name": "metadata",
          "type": "bytes"
        }
      ],
      "payable": false,
      "stateMutability": "view",
      "type": "function"
    },
    {
      "constant": false,
      "inputs": [
        {
          "name": "id",
          "type": "uint256"
        }
      ],
      "name": "refundShipment",
      "outputs": [],
      "payable": false,
      "stateMutability": "nonpayable",
      "type": "function"
    },
    {
      "constant": true,
      "inputs": [
        {
          "name": "id",
          "type": "uint256"
        }
      ],
      "name": "checkShipment",
      "outputs": [
        {
          "name": "exists",
          "type": "bool"
        }
      ],
      "payable": false,
      "stateMutability": "view",
      "type": "function"
    }
  ],
  "bytecode": "0x6080604052600060015534801561001557600080fd5b50604051602080611fcf8339810180604052810190808051906020019092919050505080600073ffffffffffffffffffffffffffffffffffffffff168173ffffffffffffffffffffffffffffffffffffffff16141515156100de576040517f08c379a000000000000000000000000000000000000000000000000000000000815260040180806020018281038252601b8152602001807f5a65726f2061646472657373206e6f742061636365707461626c65000000000081525060200191505060405180910390fd5b81600260006101000a81548173ffffffffffffffffffffffffffffffffffffffff021916908373ffffffffffffffffffffffffffffffffffffffff1602179055505050611e9f806101306000396000f3006080604052600436106100a4576000357c0100000000000000000000000000000000000000000000000000000000900463ffffffff16806309abeffa146100a9578063218a5f38146100d65780633c0b276c146101235780634ca71f8d146101505780639df98f3d14610195578063aace20b714610409578063ab6a9c7f14610434578063b7472885146104c7578063bc7b546314610524578063f204f6a014610551575b600080fd5b3480156100b557600080fd5b506100d4600480360381019080803590602001909291905050506105a8565b005b3480156100e257600080fd5b5061012160048036038101908080359060200190929190803573ffffffffffffffffffffffffffffffffffffffff1690602001909291905050506109b2565b005b34801561012f57600080fd5b5061014e60048036038101908080359060200190929190505050610ce1565b005b34801561015c57600080fd5b5061017b60048036038101908080359060200190929190505050610feb565b604051808215151515815260200191505060405180910390f35b3480156101a157600080fd5b506101c060048036038101908080359060200190929190505050611059565b604051808c81526020018b73ffffffffffffffffffffffffffffffffffffffff1673ffffffffffffffffffffffffffffffffffffffff1681526020018a73ffffffffffffffffffffffffffffffffffffffff1673ffffffffffffffffffffffffffffffffffffffff1681526020018973ffffffffffffffffffffffffffffffffffffffff1673ffffffffffffffffffffffffffffffffffffffff1681526020018873ffffffffffffffffffffffffffffffffffffffff1673ffffffffffffffffffffffffffffffffffffffff16815260200187815260200186815260200180602001806020018560038111156102b257fe5b60ff16815260200180602001848103845288818151815260200191508051906020019080838360005b838110156102f65780820151818401526020810190506102db565b50505050905090810190601f1680156103235780820380516001836020036101000a031916815260200191505b50848103835287818151815260200191508051906020019080838360005b8381101561035c578082015181840152602081019050610341565b50505050905090810190601f1680156103895780820380516001836020036101000a031916815260200191505b50848103825285818151815260200191508051906020019080838360005b838110156103c25780820151818401526020810190506103a7565b50505050905090810190601f1680156103ef5780820380516001836020036101000a031916815260200191505b509e50505050505050505050505050505060405180910390f35b34801561041557600080fd5b5061041e611333565b6040518082815260200191505060405180910390f35b34801561044057600080fd5b506104c5600480360381019080803590602001908201803590602001919091929391929390803573ffffffffffffffffffffffffffffffffffffffff169060200190929190803573ffffffffffffffffffffffffffffffffffffffff169060200190929190803590602001908201803590602001919091929391929390505050611339565b005b3480156104d357600080fd5b50610522600480360381019080803590602001909291908035906020019082018035906020019190919293919293908035906020019082018035906020019190919293919293905050506116bd565b005b34801561053057600080fd5b5061054f60048036038101908080359060200190929190505050611a33565b005b34801561055d57600080fd5b50610566611d28565b604051808273ffffffffffffffffffffffffffffffffffffffff1673ffffffffffffffffffffffffffffffffffffffff16815260200191505060405180910390f35b80600073ffffffffffffffffffffffffffffffffffffffff1660008083815260200190815260200160002060020160009054906101000a900473ffffffffffffffffffffffffffffffffffffffff1673ffffffffffffffffffffffffffffffffffffffff1614151515610683576040517f08c379a00000000000000000000000000000000000000000000000000000000081526004018080602001828103825260188152602001807f536869706d656e7420646f6573206e6f7420657869737473000000000000000081525060200191505060405180910390fd5b813373ffffffffffffffffffffffffffffffffffffffff1660008083815260200190815260200160002060030160009054906101000a900473ffffffffffffffffffffffffffffffffffffffff1673ffffffffffffffffffffffffffffffffffffffff1614151561075c576040517f08c379a00000000000000000000000000000000000000000000000000000000081526004018080602001828103825260138152602001807f556e617574686f72697a6564206163636573730000000000000000000000000081525060200191505060405180910390fd5b826000600381111561076a57fe5b600080838152602001908152602001600020600a0160009054906101000a900460ff16600381111561079857fe5b14151561080d576040517f08c379a000000000000000000000000000000000000000000000000000000000815260040180806020018281038252601b8152602001807f536869706d656e74206e6f7420696e204144444544207374617465000000000081525060200191505060405180910390fd5b600073ffffffffffffffffffffffffffffffffffffffff1660008086815260200190815260200160002060050160009054906101000a900473ffffffffffffffffffffffffffffffffffffffff1673ffffffffffffffffffffffffffffffffffffffff161415151561090d576040517f08c379a000000000000000000000000000000000000000000000000000000000815260040180806020018281038252602e8152602001807f506c65617365206164642073656e736f7220746f2074686520736869706d656e81526020017f74206265666f726520737461727400000000000000000000000000000000000081525060400191505060405180910390fd5b6001600080868152602001908152602001600020600a0160006101000a81548160ff0219169083600381111561093f57fe5b021790555042600080868152602001908152602001600020600701819055507f2da7b23ca63c1eb969eee5fae4acb98186abecf5358b0354a82a5183ebca6b2a8460016040518083815260200182600381111561099857fe5b60ff1681526020019250505060405180910390a150505050565b600082600073ffffffffffffffffffffffffffffffffffffffff1660008083815260200190815260200160002060020160009054906101000a900473ffffffffffffffffffffffffffffffffffffffff1673ffffffffffffffffffffffffffffffffffffffff1614151515610a8f576040517f08c379a00000000000000000000000000000000000000000000000000000000081526004018080602001828103825260188152602001807f536869706d656e7420646f6573206e6f7420657869737473000000000000000081525060200191505060405180910390fd5b833373ffffffffffffffffffffffffffffffffffffffff1660008083815260200190815260200160002060030160009054906101000a900473ffffffffffffffffffffffffffffffffffffffff1673ffffffffffffffffffffffffffffffffffffffff16141515610b68576040517f08c379a00000000000000000000000000000000000000000000000000000000081526004018080602001828103825260138152602001807f556e617574686f72697a6564206163636573730000000000000000000000000081525060200191505060405180910390fd5b83600073ffffffffffffffffffffffffffffffffffffffff168173ffffffffffffffffffffffffffffffffffffffff1614151515610c0e576040517f08c379a000000000000000000000000000000000000000000000000000000000815260040180806020018281038252601b8152602001807f5a65726f2061646472657373206e6f742061636365707461626c65000000000081525060200191505060405180910390fd5b6000808781526020019081526020016000209350848460050160006101000a81548173ffffffffffffffffffffffffffffffffffffffff021916908373ffffffffffffffffffffffffffffffffffffffff1602179055504284600701819055507ff73ddea0a85c184a44c8c017e32264678799a79ab6d7662bed6e26ec0d39d2a58686604051808381526020018273ffffffffffffffffffffffffffffffffffffffff1673ffffffffffffffffffffffffffffffffffffffff1681526020019250505060405180910390a1505050505050565b80600073ffffffffffffffffffffffffffffffffffffffff1660008083815260200190815260200160002060020160009054906101000a900473ffffffffffffffffffffffffffffffffffffffff1673ffffffffffffffffffffffffffffffffffffffff1614151515610dbc576040517f08c379a00000000000000000000000000000000000000000000000000000000081526004018080602001828103825260188152602001807f536869706d656e7420646f6573206e6f7420657869737473000000000000000081525060200191505060405180910390fd5b813373ffffffffffffffffffffffffffffffffffffffff1660008083815260200190815260200160002060040160009054906101000a900473ffffffffffffffffffffffffffffffffffffffff1673ffffffffffffffffffffffffffffffffffffffff16141515610e95576040517f08c379a00000000000000000000000000000000000000000000000000000000081526004018080602001828103825260138152602001807f556e617574686f72697a6564206163636573730000000000000000000000000081525060200191505060405180910390fd5b8260016003811115610ea357fe5b600080838152602001908152602001600020600a0160009054906101000a900460ff166003811115610ed157fe5b141515610f46576040517f08c379a000000000000000000000000000000000000000000000000000000000815260040180806020018281038252601d8152602001807f536869706d656e74206e6f7420696e205348495050454420737461746500000081525060200191505060405180910390fd5b6002600080868152602001908152602001600020600a0160006101000a81548160ff02191690836003811115610f7857fe5b021790555042600080868152602001908152602001600020600701819055507f2da7b23ca63c1eb969eee5fae4acb98186abecf5358b0354a82a5183ebca6b2a84600260405180838152602001826003811115610fd157fe5b60ff1681526020019250505060405180910390a150505050565b60008073ffffffffffffffffffffffffffffffffffffffff1660008084815260200190815260200160002060020160009054906101000a900473ffffffffffffffffffffffffffffffffffffffff1673ffffffffffffffffffffffffffffffffffffffff1614159050919050565b60008060008060008060006060806000606060008060008e8152602001908152602001600020905080600001549b508060020160009054906101000a900473ffffffffffffffffffffffffffffffffffffffff169a508060030160009054906101000a900473ffffffffffffffffffffffffffffffffffffffff1699508060040160009054906101000a900473ffffffffffffffffffffffffffffffffffffffff1698508060050160009054906101000a900473ffffffffffffffffffffffffffffffffffffffff1697508060060154965080600701549550806008018054600181600116156101000203166002900480601f0160208091040260200160405190810160405280929190818152602001828054600181600116156101000203166002900480156111ca5780601f1061119f576101008083540402835291602001916111ca565b820191906000526020600020905b8154815290600101906020018083116111ad57829003601f168201915b50505050509450806009018054600181600116156101000203166002900480601f0160208091040260200160405190810160405280929190818152602001828054600181600116156101000203166002900480156112695780601f1061123e57610100808354040283529160200191611269565b820191906000526020600020905b81548152906001019060200180831161124c57829003601f168201915b5050505050935080600a0160009054906101000a900460ff16925080600b018054600181600116156101000203166002900480601f01602080910402602001604051908101604052809291908181526020018280546001816001161561010002031660029004801561131c5780601f106112f15761010080835404028352916020019161131c565b820191906000526020600020905b8154815290600101906020018083116112ff57829003601f168201915b505050505091505091939597999b90929496989a50565b60015481565b600084600073ffffffffffffffffffffffffffffffffffffffff168173ffffffffffffffffffffffffffffffffffffffff16141515156113e1576040517f08c379a000000000000000000000000000000000000000000000000000000000815260040180806020018281038252601b8152602001807f5a65726f2061646472657373206e6f742061636365707461626c65000000000081525060200191505060405180910390fd5b84600073ffffffffffffffffffffffffffffffffffffffff168173ffffffffffffffffffffffffffffffffffffffff1614151515611487576040517f08c379a000000000000000000000000000000000000000000000000000000000815260040180806020018281038252601b8152602001807f5a65726f2061646472657373206e6f742061636365707461626c65000000000081525060200191505060405180910390fd5b600089899050111515611528576040517f08c379a00000000000000000000000000000000000000000000000000000000081526004018080602001828103825260238152602001807f506c656173652070726f76696465206e616d65206f662074686520736869706d81526020017f656e74000000000000000000000000000000000000000000000000000000000081525060400191505060405180910390fd5b6000806001548152602001908152602001600020925060016000815480929190600101919050558360000181905550888884600101919061156a929190611d4e565b50338360020160006101000a81548173ffffffffffffffffffffffffffffffffffffffff021916908373ffffffffffffffffffffffffffffffffffffffff160217905550868360030160006101000a81548173ffffffffffffffffffffffffffffffffffffffff021916908373ffffffffffffffffffffffffffffffffffffffff160217905550858360040160006101000a81548173ffffffffffffffffffffffffffffffffffffffff021916908373ffffffffffffffffffffffffffffffffffffffff160217905550428360060181905550848484600b019190611650929190611dce565b50600083600a0160006101000a81548160ff0219169083600381111561167257fe5b02179055507f379554d29787a5de6ba3fe581d00788337527a61bb21a7e1c3fe7c46cb01952183600001546040518082815260200191505060405180910390a1505050505050505050565b600085600073ffffffffffffffffffffffffffffffffffffffff1660008083815260200190815260200160002060020160009054906101000a900473ffffffffffffffffffffffffffffffffffffffff1673ffffffffffffffffffffffffffffffffffffffff161415151561179a576040517f08c379a00000000000000000000000000000000000000000000000000000000081526004018080602001828103825260188152602001807f536869706d656e7420646f6573206e6f7420657869737473000000000000000081525060200191505060405180910390fd5b863373ffffffffffffffffffffffffffffffffffffffff1660008083815260200190815260200160002060050160009054906101000a900473ffffffffffffffffffffffffffffffffffffffff1673ffffffffffffffffffffffffffffffffffffffff16141515611873576040517f08c379a00000000000000000000000000000000000000000000000000000000081526004018080602001828103825260138152602001807f556e617574686f72697a6564206163636573730000000000000000000000000081525060200191505060405180910390fd5b6000878790501115156118ee576040517f08c379a00000000000000000000000000000000000000000000000000000000081526004018080602001828103825260178152602001807f4c617469747564652063616e277420626520656d70747900000000000000000081525060200191505060405180910390fd5b600085859050111515611969576040517f08c379a00000000000000000000000000000000000000000000000000000000081526004018080602001828103825260188152602001807f4c6f6e6769747564652063616e277420626520656d707479000000000000000081525060200191505060405180910390fd5b60008089815260200190815260200160002092508686846008019190611990929190611d4e565b5084848460090191906119a4929190611d4e565b504283600701819055507f5386c66b9ad3ab4d97f42fc9a18b9c5b6526c0acda4e9902a147f9df07f184ca8888888888604051808681526020018060200180602001838103835287878281815260200192508082843782019150508381038252858582818152602001925080828437820191505097505050505050505060405180910390a15050505050505050565b80600073ffffffffffffffffffffffffffffffffffffffff1660008083815260200190815260200160002060020160009054906101000a900473ffffffffffffffffffffffffffffffffffffffff1673ffffffffffffffffffffffffffffffffffffffff1614151515611b0e576040517f08c379a00000000000000000000000000000000000000000000000000000000081526004018080602001828103825260188152602001807f536869706d656e7420646f6573206e6f7420657869737473000000000000000081525060200191505060405180910390fd5b600260009054906101000a900473ffffffffffffffffffffffffffffffffffffffff1673ffffffffffffffffffffffffffffffffffffffff163373ffffffffffffffffffffffffffffffffffffffff16141515611bd3576040517f08c379a00000000000000000000000000000000000000000000000000000000081526004018080602001828103825260138152602001807f556e617574686f72697a6564206163636573730000000000000000000000000081525060200191505060405180910390fd5b8160016003811115611be157fe5b600080838152602001908152602001600020600a0160009054906101000a900460ff166003811115611c0f57fe5b141515611c84576040517f08c379a000000000000000000000000000000000000000000000000000000000815260040180806020018281038252601d8152602001807f536869706d656e74206e6f7420696e205348495050454420737461746500000081525060200191505060405180910390fd5b6003600080858152602001908152602001600020600a0160006101000a81548160ff02191690836003811115611cb657fe5b021790555042600080858152602001908152602001600020600701819055507f2da7b23ca63c1eb969eee5fae4acb98186abecf5358b0354a82a5183ebca6b2a83600360405180838152602001826003811115611d0f57fe5b60ff1681526020019250505060405180910390a1505050565b600260009054906101000a900473ffffffffffffffffffffffffffffffffffffffff1681565b828054600181600116156101000203166002900490600052602060002090601f016020900481019282601f10611d8f57803560ff1916838001178555611dbd565b82800160010185558215611dbd579182015b82811115611dbc578235825591602001919060010190611da1565b5b509050611dca9190611e4e565b5090565b828054600181600116156101000203166002900490600052602060002090601f016020900481019282601f10611e0f57803560ff1916838001178555611e3d565b82800160010185558215611e3d579182015b82811115611e3c578235825591602001919060010190611e21565b5b509050611e4a9190611e4e565b5090565b611e7091905b80821115611e6c576000816000905550600101611e54565b5090565b905600a165627a7a723058200e41d2319e216df6bbc7af726a5bac88550ee6f720d8a76601e5ff583eb7e5090029",
  "source": "pragma solidity 0.4.24;\n\n/** \n* @dev Contract simulating traceability in supply chain management\n* For now there will be single control authority for the entire Shipment contract. \n* Later on we can change it to per shipment level or something else\n*/\ncontract TraceabilitySupplyChain {\n\n    enum Status{ADDED, SHIPPED, RECEIVED, REFUNDED}\n\n    struct Shipment {\n\n        uint256 id;//Each shipment will have unique id which will be generated by the contract\n        string name;//Name of the shipment\n        address producer;// The producer of the shipment\n        address shipper;// The shipper of the shipment\n        address receiver;// The end customer of receiver of the shipment\n        address sensor;// The wallet of unqiue sensor attached with the shipment. This sensor will be allowed to update tracking information about the shipment\n        uint256 dateAdded;// Date when this shipment was added\n        uint256 lastUpdated;// Date and time when the shipment was last updated\n        string currentLatitude;//Current latitude of the shipment\n        string currentLongitude;//Current longitude of the shipment\n        Status status;//Current status of the shipment\n        bytes metadata;// Other metadata about shipment\n    }\n\n    mapping(uint256=>Shipment) idVsShipment;\n\n\n    uint256 public shipmentCount = 0;//Total number of shipments sent so far\n\n    address public controlAuthority;//Wallet address of the control authority\n\n    event ShipmentAdded(uint256 id);\n\n    event SensorPlaced(uint256 id, address sensor);\n\n    event LocationUpdated(uint256 id, string latitude, string longitude);\n\n    event StatusUpdated(uint256 id, Status status);\n\n    modifier nonZeroAddress(address _address){\n        require(_address != address(0), \"Zero address not acceptable\");\n        _;\n    }\n\n    modifier shipmentExists(uint256 shipmentId){\n        require(idVsShipment[shipmentId].producer != address(0), \"Shipment does not exists\");\n        _;\n    }\n\n    modifier onlyShipper(uint256 shipmentId){\n        require(idVsShipment[shipmentId].shipper == msg.sender, \"Unauthorized access\");\n        _;\n    }\n\n    modifier onlySensor(uint256 shipmentId){\n        require(idVsShipment[shipmentId].sensor == msg.sender, \"Unauthorized access\");\n        _;\n    }\n\n    modifier onlyReceiver(uint256 shipmentId) {\n        require(idVsShipment[shipmentId].receiver == msg.sender, \"Unauthorized access\");\n        _;\n    }\n\n    modifier inAddedState(uint256 shipmentId){\n        require(idVsShipment[shipmentId].status == Status.ADDED, \"Shipment not in ADDED state\");\n        _;\n    }\n\n    modifier inShippedState(uint256 shipmentId){\n        require(idVsShipment[shipmentId].status == Status.SHIPPED, \"Shipment not in SHIPPED state\");\n        _;\n    }\n\n    modifier onlyControlAuthority(){\n        require(msg.sender == controlAuthority, \"Unauthorized access\");\n        _;\n    }   \n\n    constructor(address _controlAuthority)public nonZeroAddress(_controlAuthority){\n        \n        controlAuthority = _controlAuthority;\n\n    }\n\n    /** \n    * @dev Add new shipment\n    * @param shipper Wallet address of the shipper\n    * @param receiver Wallet address of the receiver\n    * @param name Name of the shipment\n    * @param metaData Extra info about the shipment\n    * The sender of this transaction will be considered as the producer of the shipment\n    */\n    function addShipment(string name, address shipper, address receiver, bytes metaData)external\n     nonZeroAddress(shipper) nonZeroAddress(receiver){\n        \n        require(bytes(name).length>0, \"Please provide name of the shipment\");\n\n        Shipment storage shipment = idVsShipment[shipmentCount];\n        shipment.id = shipmentCount++;\n        shipment.name = name;\n        shipment.producer = msg.sender;\n        shipment.shipper = shipper;\n        shipment.receiver = receiver;\n        shipment.dateAdded = block.timestamp;\n        shipment.metadata = metaData;\n        shipment.status = Status.ADDED;//New shipment, still not transported\n\n        emit ShipmentAdded(shipment.id);\n    }\n\n    /** \n    * @dev The shipper of the shipment will be able to put sensor on the shipment. This sensor will be responsible for tranmitting location information\n    * about shipment periodically to the blockchain\n    * @param id Shipment id\n    * @param sensor Wallet address of the sensor\n    * Only shipper of the shipment can call this function\n    */\n    function putSensor(uint256 id, address sensor)external shipmentExists(id) onlyShipper(id) nonZeroAddress(sensor){\n        \n        Shipment storage shipment = idVsShipment[id];\n        shipment.sensor = sensor;\n        shipment.lastUpdated = block.timestamp;\n\n        emit SensorPlaced(id, sensor);\n    }\n\n    /** \n    * @dev The sensor of the shipment will be able to update its location periodically\n    * @param id Shipment id\n    * @param latitude Current latitude of the shipment\n    * @param longitude Current longitude of the shipment\n    */\n    function updateLocation(uint256 id, string latitude, string longitude)external shipmentExists(id) onlySensor(id){\n\n        require(bytes(latitude).length > 0, \"Latitude can't be empty\");\n        require(bytes(longitude).length > 0, \"Longitude can't be empty\");\n\n        Shipment storage shipment = idVsShipment[id];\n        shipment.currentLatitude = latitude;\n        shipment.currentLongitude = longitude;\n        shipment.lastUpdated = block.timestamp;\n\n        emit LocationUpdated(id, latitude, longitude);\n    }\n\n    /** \n    * @dev Start the shipping of the shipment to be delivered to the receiver\n    * @param id Shipment id\n    * Only Shipper of the shipment can start the shipment\n    * Sensor must be added before shipment can be started\n    */\n    function startShipment(uint256 id)external shipmentExists(id) onlyShipper(id) inAddedState(id){\n\n        require(idVsShipment[id].sensor != address(0), \"Please add sensor to the shipment before start\");\n\n        idVsShipment[id].status = Status.SHIPPED;\n\n        idVsShipment[id].lastUpdated = block.timestamp;\n\n        emit StatusUpdated(id, Status.SHIPPED);\n    }\n    \n\n    /** \n    * @dev Receiver of the shipment can mark shipment as received, once received\n    * @param id Shipment id\n    */\n    function receiveShipment(uint256 id)external\n     shipmentExists(id) onlyReceiver(id) inShippedState(id){\n\n        idVsShipment[id].status = Status.RECEIVED;\n\n        idVsShipment[id].lastUpdated = block.timestamp;\n\n        emit StatusUpdated(id, Status.RECEIVED);\n\n    }\n\n    /**\n    * @dev Get information about the shipment\n    * @param id Shipment id\n    */\n    function getShipmentInfo(uint256 id)external view returns\n     (uint256 shipmentId, address producer, address shipper, address receiver, address sensor, uint256 dateAdded, uint256 lastUpdated, string currentLatitude, string currentLongitude, Status status, bytes metadata) {\n\n        Shipment storage shipment = idVsShipment[id];\n\n        shipmentId = shipment.id;\n        producer = shipment.producer;\n        shipper = shipment.shipper;\n        receiver = shipment.receiver;\n        sensor = shipment.sensor;\n        dateAdded = shipment.dateAdded;\n        lastUpdated = shipment.lastUpdated;\n        currentLatitude = shipment.currentLatitude;\n        currentLongitude = shipment.currentLongitude;\n        status = shipment.status;\n        metadata = shipment.metadata;\n    }\n\n    /** \n    * @dev Allows control autorhity to mark shipment as refunded in case producer/shipper is found at fault\n    * @param id Shipment Id \n    */\n    function refundShipment(uint256 id)external shipmentExists(id) onlyControlAuthority inShippedState(id){\n\n        idVsShipment[id].status = Status.REFUNDED;\n\n        idVsShipment[id].lastUpdated = block.timestamp;\n\n        emit StatusUpdated(id, Status.REFUNDED);\n    }\n\n    /** \n    * @dev Check whether shipment exists\n    * @param id Shipment Id\n    */\n    function checkShipment(uint256 id)external view returns(bool exists){\n\n        exists = idVsShipment[id].producer != address(0);\n\n    }\n}",
  "sourcePath": "/home/sameep/freelancing-projects/anyLedger/smart-contracts/ethereum/contractSandbox/traceabilitySupplyChain/contracts/TraceabilitySupplyChain.sol",
  "compiler": {
    "name": "solc",
    "version": "0.4.24+commit.e67f0147.Emscripten.clang"
  },
  "schemaVersion": "2.0.1",
  "updatedAt": "2018-09-02T10:00:17.767Z"
}